:100000000C9495010C94C6010C94C6010C94C60185
:100010000C94C6010C94C6010C94C6010C94C60144
:100020000C94C6010C9454090C9454090C94540972
:100030000C94C6010C94A4040C94C6010C94C60143
:100040000C94C6010C941C070C94C6010C94C601B8
:100050000C94C6010C94C6010C94C6010C945A046D
:100060000C94C6010C9413060C94E9050C94C6017B
:100070000C94C6010C94C6010C94C6010C94C601E4
:100080000C94C6010C94C6010C94C6010C94C601D4
:100090000C94C6010C94C6010C94C6010C945E0924
:1000A0000C94C6010C94C6010C94C6010C94C601B4
:1000B0000C94C6010C94C6010C94C6010C943D0628
:1000C0000C94C6010C94C6010C94C6010C94BF0597
:1000D0000C9495050C94C6010C946B050C94410589
:1000E0000C94C6017A037F0384038E0398031104E2
:1000F000A203AA03B203BC03C603D003DF03E903D0
:100100001104F303FD030704AB0AAE0A9D0AA10A1A
:10011000A70AE50AB20AB60ABC0AC00AC40ACA0A91
:10012000CE0AD20AE50AD80ADC0AE00A0C94B20A1E
:100130000C9498030C9480080C9484030C94D80AB3
:100140000C94D0030C94BC030C94E00A0C9411049E
:100150000C94FD030C9455080C94A10A0C945308BC
:100160000C94150E0C94D20A0C94F3030C94E9032E
:100170000C94C40A0C9415020C94DC0A0C94A2038F
:100180000C9464080C94B2030C94AD080C94C60350
:100190000C94AB0A0C94CA0A0C94A70A0C947A0328
:1001A0000C9478080C9423020C948E030C94AE0AE1
:1001B0000C9407040C94E50A0C9452080C94090E54
:1001C0000C949D0A0C94B60A0C946F020C94DF03F5
:1001D0000C94AA030C947F030C940F030C9401025B
:1001E0000C94F2010C94BC020C940E030C94BC0A07
:1001F0000C9435040C9454080C94C8010C94CE0A49
:100200000C94C00A000020002300260029002C00C6
:100210002F00320000010000030106010901020065
:10022000002100240027002A002D003000330001A7
:10023000010000040107010A010000220025002836
:10024000002B002E003100340002010000050108DF
:10025000010B01050505050705080808080202024B
:10026000020A0A0808040404040101010101010151
:10027000010303030303030303040707070C0C0C28
:100280000C0C0C0C0C020202020606060606060600
:10029000060B0B0B0B0B0B0B0B010210202008089D
:1002A00010204010204080020102010804020101D8
:1002B00002040810204080804020100804020180C1
:1002C0000402018040201008040201080402010118
:1002D0000204081020408001020408102040800021
:1002E000000A0B02090C0D0E0807030401000000B0
:1002F00000000000000000000000000000000000FE
:1003000000000000000000000000001211100000BA
:1003100000000000000000000000000000000000DD
:10032000000000000000150E090E11241FBECFEFC3
:10033000D1E2DEBFCDBF00E00CBF12E0A0E0B2E032
:10034000E8E0F7E200E00BBF02C007900D92A03496
:10035000B107D9F727E0A0E4B2E001C01D92A533B0
:10036000B207E1F711E0C4E9D1E000E006C021974F
:100370000109802FFE010E941411C339D10780E0CA
:100380000807A9F70E94510B0C9472130C940000FB
:10039000CF92DF92EF92FF920F931F93CF93DF9351
:1003A0006C017A018B01C0E0D0E0CE15DF0581F051
:1003B000D8016D918D01D601ED91FC910190F081F4
:1003C000E02DC6011995892B11F02196EECF7E0103
:1003D000C701DF91CF911F910F91FF90EF90DF90B8
:1003E000CF900895FC01538D448D252F30E0842F4C
:1003F00090E0821B930B541710F0CF96089501974D
:100400000895FC01918D828D981761F0828DDF0136
:10041000A80FB11D5D968C91928D9F5F9F73928FF7
:1004200090E008958FEF9FEF0895FC01918D828DEC
:10043000981731F0828DE80FF11D858D90E00895B9
:100440008FEF9FEF0895FC01918D228D892F90E011
:10045000805C9F4F821B91098F739927089580E8D4
:1004600092E00E94230221E0892B09F420E0822FF0
:1004700008958DE193E00E94230221E0892B09F485
:1004800020E0822F08958AEB93E00E94230221E06E
:10049000892B09F420E0822F0895FC01848DDF016F
:1004A000A80FB11DA35ABF4F2C91848D90E00196E7
:1004B0008F739927848FA689B7892C93A089B189D6
:1004C0008C91837080648C93938D848D981306C077
:1004D0000288F389E02D80818F7D80830895EF92DB
:1004E000FF920F931F93CF93DF93EC0181E0888FEE
:1004F0009B8D8C8D981305C0E889F989808185FDD5
:1005000026C0F62E0B8D10E00F5F1F4F0F731127C3
:10051000E02E8C8DE8120CC00FB607FCFACFE889EC
:10052000F989808185FFF5CFCE010E944D02F1CF80
:100530008B8DFE01E80FF11DE35AFF4FF0829FB74C
:10054000F8940B8FEA89FB89808180620AC09FB78B
:10055000F894EE89FF896083E889F9898081837046
:10056000806480839FBF81E090E0DF91CF911F91F5
:100570000F91FF90EF900895CF93DF93EC01888D5A
:100580008823C9F0EA89FB89808185FD05C0A88997
:10059000B9898C9186FD0FC00FB607FCF5CF80811D
:1005A00085FFF2CFA889B9898C9185FFEDCFCE0167
:1005B0000E944D02E7CFDF91CF910895E0E0F0E097
:1005C000199480E090E0892B21F00E944302811170
:1005D00019C080E090E0892B41F080E090E0892B09
:1005E00021F00E940000811110C00E943902811187
:1005F0000FC080E090E0892B81F00E942F028111D2
:100600000AC008950E940000E4CF0E940000EDCFD0
:100610000E94DE02EECF0C9400000895089580E061
:1006200090E008958EBD00000DB407FEFDCF8EB59D
:1006300008958F929F92AF92BF92CF92DF92EF92E6
:10064000FF920F931F93CF93DF938C016A017B017D
:1006500020E030E04FE753E4C701B6010E944A10A2
:100660004B015C0120E030E0A9010E9452111816F4
:100670001CF4C501B40103C0C501B40190580E9427
:100680001C11EB0120E030E0A901C701B6010E9476
:100690005211181614F460E001C061E0F801818184
:1006A0000E94E60ACF3FD10509F014F4DD2702C00D
:1006B000CFEFD0E0F801108161E0812F0E94150B8F
:1006C000209709F4B1C0CF3FD10509F4AFC0E12FA5
:1006D000F0E0E152FD4FE4918E2F90E0FC01319764
:1006E000E231F10508F09DC08827EE58FF4F8F4F8B
:1006F0000C94141184B5806884BDC7BDA7C084B5AF
:10070000806284BDC8BDA2C0809180008068809353
:100710008000D0938900C093880098C080918000A9
:10072000806280938000D0938B00C0938A008EC03B
:1007300080918000886080938000D0938D00C0936A
:100740008C0084C08091B00080688093B000C0931A
:10075000B3007CC08091B00080628093B000C093F1
:10076000B40074C080919000806880939000D09312
:100770009900C09398006AC0809190008062809335
:100780009000D0939B00C0939A0060C0809190002D
:10079000886080939000D0939D00C0939C0056C0C9
:1007A0008091A00080688093A0008091A0008F7B42
:1007B0008093A000D093A900C093A80047C0809167
:1007C000A00080628093A000D093AB00C093AA00E9
:1007D0003DC08091A00088608093A000D093AD00C0
:1007E000C093AC0033C080912001806880932001C9
:1007F000D0932901C093280129C0809120018062F3
:1008000080932001D0932B01C0932A011FC08091B7
:100810002001886080932001D0932D01C0932C018A
:1008200015C0C038D10514F460E001C061E0812F2B
:10083000DF91CF911F910F91FF90EF90DF90CF90BC
:10084000BF90AF909F908F900C94E60ADF91CF916C
:100850001F910F91FF90EF90DF90CF90BF90AF90DE
:100860009F908F9008950E945D130F931F93CF93D5
:10087000DF938C01C62FD62FD07FD1606D2F0E94C1
:1008800013096D2FC8010E94260980E1C89FB0019D
:100890001124C62FC1606C2FC8010E9413096C2F50
:1008A000C8010E94260981E090E0DF91CF911F915D
:1008B0000F9108951F920F920FB60F9211242F934C
:1008C0003F938F939F93AF93BF93809165029091D5
:1008D0006602A0916702B09168023091640223E041
:1008E000230F2D3720F40196A11DB11D05C026E868
:1008F000230F0296A11DB11D20936402809365020F
:1009000090936602A0936702B093680280916002A0
:1009100090916102A0916202B09163020196A11DC3
:10092000B11D8093600290936102A0936202B09324
:100930006302BF91AF919F918F913F912F910F9043
:100940000FBE0F901F9018951F920F920FB60F9227
:1009500011240BB60F922F933F934F935F936F9396
:100960007F938F939F93AF93BF93EF93FF93809168
:100970005B0290915C02A0915D02B0915E02892BB6
:100980008A2B8B2B49F190915A0280910000892784
:100990008093000080915B0290915C02A0915D02C7
:1009A000B0915E02181619061A061B060CF056C006
:1009B00080915B0290915C02A0915D02B0915E0219
:1009C0000197A109B10980935B0290935C02A09307
:1009D0005D02B0935E0242C080910002EEE1F2E05F
:1009E000E4919FEF90930002E230C9F050F4EE23BF
:1009F00099F0E13081F590916F009D7F90936F00A9
:100A00002AC0E43019F1E0F0E53029F59091730047
:100A10009D7F909373001FC010926E001CC0909138
:100A200070009D7F9093700091E09093B000909142
:100A3000B100987F94609093B1001092B3000BC006
:100A4000909171009D7F9093710005C0909172000C
:100A50009D7F9093720060E00E94E60AFF91EF9103
:100A6000BF91AF919F918F917F916F915F914F91C6
:100A70003F912F910F900BBE0F900FBE0F901F90C4
:100A800018951F920F920FB60F9211240BB60F926A
:100A90002F933F934F935F936F937F938F939F9386
:100AA000AF93BF93EF93FF9380E892E00E944D02D3
:100AB000FF91EF91BF91AF919F918F917F916F9136
:100AC0005F914F913F912F910F900BBE0F900FBEF2
:100AD0000F901F9018951F920F920FB60F9211242E
:100AE0000BB60F922F933F934F935F936F937F9328
:100AF0008F939F93AF93BF93EF93FF9380E892E020
:100B00000E943B09FF91EF91BF91AF919F918F910F
:100B10007F916F915F914F913F912F910F900BBEFD
:100B20000F900FBE0F901F9018951F920F920FB647
:100B30000F9211240BB60F922F933F934F935F9315
:100B40006F937F938F939F93AF93BF93EF93FF9395
:100B50008DE193E00E944D02FF91EF91BF91AF9123
:100B60009F918F917F916F915F914F913F912F91C5
:100B70000F900BBE0F900FBE0F901F9018951F92F5
:100B80000F920FB60F9211240BB60F922F933F9333
:100B90004F935F936F937F938F939F93AF93BF9385
:100BA000EF93FF938DE193E00E943B09FF91EF915A
:100BB000BF91AF919F918F917F916F915F914F9175
:100BC0003F912F910F900BBE0F900FBE0F901F9073
:100BD00018951F920F920FB60F9211240BB60F9219
:100BE0002F933F934F935F936F937F938F939F9335
:100BF000AF93BF93EF93FF938AEB93E00E944D0274
:100C0000FF91EF91BF91AF919F918F917F916F91E4
:100C10005F914F913F912F910F900BBE0F900FBEA0
:100C20000F901F9018951F920F920FB60F921124DC
:100C30000BB60F922F933F934F935F936F937F93D6
:100C40008F939F93AF93BF93EF93FF938AEB93E0C0
:100C50000E943B09FF91EF91BF91AF919F918F91BE
:100C60007F916F915F914F913F912F910F900BBEAC
:100C70000F900FBE0F901F9018951F920F920FB6F6
:100C80000F9211240BB60F922F933F934F935F93C4
:100C90006F937F938F939F93AF93BF93CF93DF9384
:100CA000EF93FF932091580430E0F901E152FD4F9A
:100CB0008491F901E756FD4FD491F901ED5AFD4FAA
:100CC000C491CC2379F081110E94900AEC2FF0E0BE
:100CD000EE0FFF1FEC5FFD4FA591B491EC91ED235A
:100CE00081E009F480E020915C0430915D042F5F85
:100CF0003F4F30935D0420935C0490915B049536E4
:100D000018F096E090935704909157049430C9F1ED
:100D100028F4923069F09330D1F05EC0953009F438
:100D200051C0963009F058C091E09093280551C009
:100D3000811152C020915C0430915D04243631054C
:100D400008F442C01092280510925B041CC0813048
:100D500009F042C0E0915B0491E09E0F90935B0428
:100D6000F0E020915C0430915D04EE0FFF1FE95A22
:100D7000FB4F3087278310925D0410925C0494E04F
:100D800029C0811117C0E0915B0491E09E0F909300
:100D90005B04F0E020915C0430915D04EE0FFF1FD6
:100DA000E95AFB4F3087278310925D0410925C0450
:100DB00093E010C020915C0430915D04253631052C
:100DC00058F007C0811108C010925D0410925C04B5
:100DD00003C095E09093570490915A049923B9F079
:100DE00081110AC080915904882321F0809159040F
:100DF00061E009C02F9A0BC080915904882331F01B
:100E00008091590460E00E94E60A01C02F98FF918A
:100E1000EF91DF91CF91BF91AF919F918F917F9192
:100E20006F915F914F913F912F910F900BBE0F905B
:100E30000FBE0F901F9018951F920F920FB60F9232
:100E400011240BB60F922F933F934F935F936F93A1
:100E50007F938F939F93AF93BF93EF93FF93809173
:100E6000590287FF05C0109285001092840016C0B9
:100E700020915902022E000C330B8091650590E001
:100E8000281739075CF43091590225E03203F0014C
:100E90001124E75DFA4F808186FD15C080915902CB
:100EA0008F5F8093590220915902022E000C330B60
:100EB0008091650590E02817390794F480915902D4
:100EC0008C302CF10DC0309159023203F001112405
:100ED000E75DFA4F808160E08F730E94E60ADECF03
:100EE000809184009091850084349C4918F480E4BA
:100EF0009CE905C0809184009091850004969093B0
:100F00008900809388008FEF809359022AC0409116
:100F10008400509185003091590225E03203F001A0
:100F20001124E75DFA4F81819281840F951F909380
:100F3000890080938800309159023203F001112416
:100F4000E75DFA4F808186FF0CC030915902320371
:100F5000F0011124E75DFA4F808161E08F730E94F8
:100F6000E60AFF91EF91BF91AF919F918F917F9191
:100F70006F915F914F913F912F910F900BBE0F900A
:100F80000FBE0F901F90189530917302313208F008
:100F90004BC0809171028111FCCF9091480622E0F4
:100FA0002093710221E0209370022FEF20932606F8
:100FB0001092250630932406E8E2F6E0A4E0B6E0BD
:100FC00020E0321721F041914D932F5FFACF10921C
:100FD000030620910306990F922B9093030690919C
:100FE0006F02913061F410926F029091030690931A
:100FF000BB009091BC0093FDF8CF95EC01C095EE3D
:101000009093BC00909171029230E1F3909126068A
:101010009F3F79F080912606803241F0809126062C
:10102000803331F084E005C081E003C082E001C07C
:1010300083E01092720210927302109227060895B4
:1010400085ED8093BC008091BC0084FDFCCF1092A4
:10105000710208954091DE05262F30E0240F311DE6
:1010600021323105DCF4209171022430C9F4FC01F5
:1010700080E090E0861758F43091DE052191DC0184
:10108000A254BA4FA30FB11D2C930196F3CF8091B8
:10109000DE05680F6093DE0580E0089581E0089525
:1010A00082E00895089508950895E0916A0280917C
:1010B0006902E81730F4F0E0E256FA4F808190E0E0
:1010C00008958FEF9FEF089590916A0280916902D1
:1010D000981750F4E92FF0E0E256FA4F208130E003
:1010E0009F5F90936A0202C02FEF3FEFC9010895FE
:1010F0008091690290E020916A02821B9109089513
:10110000CF92DF92EF92FF920F931F93CF93DF93D3
:101110007C01CB018A0120912706222389F0EB0173
:101120006B01C40ED51ECC15DD0569F06991D701A0
:10113000ED91FC910190F081E02DC7011995F3CF5D
:10114000642F0E942A08C801DF91CF911F910F914F
:10115000FF90EF90DF90CF900895CF93DF931F9291
:10116000CDB7DEB76983209127062223D1F02091E5
:101170007302203240F021E030E0FC01338322830F
:1011800080E090E015C080917202E82FF0E0E85D09
:10119000F94F998190838F5F8093720280937302DD
:1011A00005C061E0CE0101960E942A0881E090E02E
:1011B0000F90DF91CF9108950F931F93CF93DF93FB
:1011C000162F072FC7E6D5E09C8521E02093270640
:1011D000909348061092720210927302AA85BB8502
:1011E000ED91FC9111970190F081E02D682FCD01D8
:1011F00019958A859B85DC01ED91FC910190F08128
:10120000E02D602F19958A859B85DC01ED91FC917D
:101210000190F081E02D612F1995DF91CF911F9101
:101220000F910C94C407FC01248131E03093270610
:101230002093480610927202109273028485682BE4
:1012400084E792E00E94AD080C94C4070F931F93AB
:10125000CF938C01C62F64600E9413096C2F6B7FA3
:10126000C8010E94130983EC90E00197F1F7CF9138
:101270001F910F910895FC01A089B1898C91A689D5
:10128000B78982FD0FC09C91818D8F5F8F73228DF6
:10129000821749F0218DDF01A20FB11D5D969C934D
:1012A000818F08958C9108951F920F920FB60F921F
:1012B00011240F900FBE0F901F9018951F920F9240
:1012C0000FB60F9211240BB60F922F933F934F93AB
:1012D0005F936F937F938F939F93AF93BF93EF939E
:1012E000FF938091B900887F803609F49CC068F52F
:1012F000883209F45BC090F4803109F454C038F4AA
:10130000882309F4F6C0883009F44DC0F6C088314E
:1013100009F44CC0803209F45DC0EFC0803409F498
:1013200068C048F4803309F455C0883309F0E5C03B
:1013300080932606D8C0803509F44FC0883509F45B
:101340005DC0883409F0D9C0D6C0883909F4C7C057
:10135000A8F4883709F467C038F4883609F463C004
:10136000803709F460C0C9C0883809F4B8C0803932
:1013700009F45FC0803809F0C0C05BC0803B09F44D
:1013800086C038F4803A09F466C0883A09F47FC010
:10139000B4C0803C09F4A7C0883C09F4A4C0883BD1
:1013A00009F48AC0AAC08091030610C09091250656
:1013B00080912406981770F5E091250681E08E0F44
:1013C00080932506F0E0EC5FF94F80818093BB00AD
:1013D00085EC86C0809326068EC0E091250681E0CC
:1013E0008E0F809325068091BB00F0E0EC5FF94FF3
:1013F000808390912506809124066EC0E091250699
:1014000081E08E0F809325068091BB00F0E0EC5FB9
:10141000F94F80838091700281116DC081E08093CB
:101420006F0284EA61C083E080937102109200062B
:10143000CFCF80910006803208F051C0E0910006C5
:1014400081E08E0F809300068091BB00F0E0E052B7
:10145000FA4F8083BDCF85EC8093BC00109271025F
:1014600080910006803230F4E0910006F0E0E05216
:10147000FA4F10826091000670E0E0916D02F091E9
:101480006E0280EE95E019951092000636C084E059
:10149000809371021092DF051092DE05E0916B02DD
:1014A000F0916C0219958091DE05811105C081E0F3
:1014B0008093DE051092BE05E091DF0581E08E0F7E
:1014C0008093DF05F0E0E254FA4F80818093BB0007
:1014D0009091DF058091DE05981708F479CF85E8B3
:1014E0008093BC000AC085EC8093BC00109271020E
:1014F00004C0109226060E942008FF91EF91BF9130
:10150000AF919F918F917F916F915F914F913F919B
:101510002F910F900BBE0F900FBE0F901F9018953C
:1015200090E0FC013197E231F10508F04EC08827C8
:10153000EC57FF4F8F4F0C941411809180008F77E0
:1015400003C0809180008F7D8093800008958091FA
:101550008000877FF9CF84B58F7702C084B58F7DF7
:1015600084BD08958091B0008F7703C08091B00052
:101570008F7D8093B0000895809190008F7707C091
:10158000809190008F7D03C080919000877F809331
:10159000900008958091A0008F7707C08091A000EF
:1015A0008F7D03C08091A000877F8093A000089565
:1015B000809120018F7707C0809120018F7D03C02B
:1015C00080912001877F8093200108951F93CF93FE
:1015D000DF93282F30E0F901E152FD4F8491F901AA
:1015E000E756FD4FD491F901ED5AFD4FC491CC233C
:1015F000C1F0162F81110E94900AEC2FF0E0EE0F3F
:10160000FF1FE75CFD4FA591B4919FB7F8941111AE
:1016100004C08C91D095D82302C0EC91DE2BDC93D2
:101620009FBFDF91CF911F910895CF93DF9390E0FB
:10163000FC01E756FD4F2491FC01ED5AFD4F8491CA
:10164000882361F190E0880F991FFC01E15EFD4F56
:10165000C591D491FC01E75CFD4FA591B491611156
:1016600009C09FB7F8948881209582238883EC91E4
:101670002E230BC0623061F49FB7F8948881322F1B
:10168000309583238883EC912E2B2C939FBF06C02B
:101690008FB7F894E8812E2B28838FBFDF91CF91ED
:1016A0000895789484B5826084BD84B5816084BDDA
:1016B00085B5826085BD85B5816085BD80916E00F0
:1016C000816080936E001092810080918100826021
:1016D000809381008091810081608093810080915E
:1016E00080008160809380008091B100846080934D
:1016F000B1008091B00081608093B0008091910032
:10170000826080939100809191008160809391002C
:10171000809190008160809390008091A100826010
:101720008093A1008091A10081608093A1008091AD
:10173000A00081608093A00080912101826080934D
:1017400021018091210181608093210180912001FC
:1017500081608093200180917A00846080937A0078
:1017600080917A00826080937A0080917A00816013
:1017700080937A0080917A00806880937A0010923A
:10178000C100E091CA03F091CB0382E08083E09135
:10179000C603F091C7031082E091C803F091C9031A
:1017A0008FEC80831092D203E091CE03F091CF03AF
:1017B00086E08083E091CC03F091CD03808180614D
:1017C0008083E091CC03F091CD0380818860808399
:1017D000E091CC03F091CD03808180688083E0911B
:1017E000CC03F091CD0380818F7D808361E0809177
:1017F00068050E94150B60E0809168050E94E60A6A
:1018000060E0809167050E94150B84E792E0909359
:1018100072058093710510926A021092690210920B
:101820007202109273021092710281E08093700232
:1018300010926F0261E084E10E94E60A61E085E1B6
:101840000E94E60A8091B9008E7F8093B900809152
:10185000B9008D7F8093B90088E48093B80085E457
:101860008093BC0082E598E090936C0280936B02B9
:1018700083E598E090936E0280936D0280E090E1A2
:10188000A0E0B0E08093740590937505A093760571
:10189000B09377058AE090E0A0E0B0E0809378050F
:1018A00090937905A0937A05B0937B0580E090E052
:1018B000A0E0B0E480937C0590937D05A0937E0525
:1018C000B0937F0560E070E185E00E94DC086FE97D
:1018D00079E380E00E94DC08C7E6D5E08E0142E0B3
:1018E000542E58E8652E52E0752E6EEC862E62E07E
:1018F000962E7BECC72E77E0D72EEBE8AE2EBB24DE
:10190000B394F80194818281898F9A8F61E00E945B
:10191000150B61E08A8D0E94150BF8019085868178
:101920008D8F9E8F61E00E94150B60E08E8D0E946E
:10193000150B61E08D8D0E94E60A4FB6F8948091F8
:101940005F02811126C0F3018491F4012491E82FF4
:10195000F0E0EE0FFF1FE15EFD4FA591B4919C9169
:10196000822F892321F461E085E30E94E60A61E089
:1019700085E30E94150B8CB580618CBD8CB58064AD
:101980008CBD61E084E30E94150B61E083E30E945B
:10199000150B80915F028F5F80935F024FBEC6017F
:1019A0000197F1F760E08D8D0E94E60A88E80E94B9
:1019B000120383E00E94120361E08D8D0E94E60A0B
:1019C000C6010197F1F760E08D8D0E94E60A88E973
:1019D0000E94120380E00E94120380E00E94120322
:1019E00080E00E94120380E00E94120361E08D8D6E
:1019F0000E94E60AC5010197F1F760E08D8D0E9413
:101A0000E60A80EE0E94120361E08D8D0E94E60AD4
:101A10005A940F5F1F4F2296511073CFCCE8D5E038
:101A200060E089910E94150BF5E0C039DF07C1F72E
:101A300008E815E0E80185E0D82E9CE0B92E22E008
:101A4000C22E88898C3008F045C0A88461E08A2DB8
:101A50000E94150B8889D89EF0011124E75DFA4F8A
:101A60009A2D9F732081207CA22EA92AA082138206
:101A700014826B2D0E9408119CE0899FA001112403
:101A800020E030E0BA01620F731FD69EF001D79EAE
:101A9000F00D1124E75DFA4F908196FD12C02F5F83
:101AA0003F4F2C30310571F781110BC0109280002F
:101AB000C09281001092850010928400C6BAC09234
:101AC0006F00E889DE9EF0011124E75DFA4F808106
:101AD000806480839E858C85F801828B938B60E087
:101AE0000E94150B61E0F80183890E94150B60E0EC
:101AF000F80183890E94E60A21960E5F1F4FF5E0E8
:101B0000CA38DF0709F09DCFF8941092200189E0D0
:101B10008093210180E293E0909329018093280132
:101B20001092250110922401C2E0C09373007894B2
:101B3000C093570410925B048091580460E00E94A7
:101B4000150BE091CA03F091CB03C083E091C6036B
:101B5000F091C7031082E091C803F091C90383E3B9
:101B600080831092D203E091CE03F091CF0386E000
:101B70008083E091CC03F091CD03808180618083EC
:101B8000E091CC03F091CD03808188608083E09167
:101B9000CC03F091CD03808180688083E091CC03F9
:101BA000F091CD0380818F7D80838AEB93E00E944A
:101BB0002302892B29F08AEB93E00E9401027C0129
:101BC00080E3E816F10479F44DEC5CEC6CEC7DE319
:101BD00080E895E00E94190340E050E060E070E882
:101BE00082E895E011C091E3E916F10479F44DEC37
:101BF0005CEC6CEC7DEB82E895E00E94190340E020
:101C000050E0BA0180E895E00E9419030E94E102C9
:101C1000CCCF80912407909125070E94EF118091ED
:101C20002B0790912C070C94EF11109277021092D1
:101C3000760288EE93E0A0E0B0E080937802909383
:101C40007902A0937A02B0937B0223E132E03093D1
:101C50007502209374021092830210928202809384
:101C6000840290938502A0938602B093870225E2B6
:101C700032E0309381022093800245E351E050939B
:101C80008D0240938C0244E351E050938F024093C5
:101C90008E0240E351E0509391024093900241E361
:101CA00051E0509393024093920242E351E05093EB
:101CB00095024093940246E351E05093970240937B
:101CC00096021092990210929A0210929B02109220
:101CD0009C021092200310921F0380932103909383
:101CE0002203A0932303B093240330931E03209375
:101CF0001D0345ED50E050932A034093290344ED22
:101D000050E050932C0340932B0340ED50E0509350
:101D10002E0340932D0341ED50E050933003409348
:101D20002F0342ED50E0509332034093310346EDD0
:101D300050E05093340340933303109236031092D3
:101D4000370310923803109239031092BD0310929A
:101D5000BC038093BE039093BF03A093C003B093D2
:101D6000C1033093BB032093BA0385EC90E09093BA
:101D7000C7038093C60384EC90E09093C9038093DB
:101D8000C80380EC90E09093CB038093CA0381EC6E
:101D900090E09093CD038093CC0382EC90E09093FD
:101DA000CF038093CE0386EC90E09093D103809391
:101DB000D0031092D3031092D4031092D503109243
:101DC000D6038091070290910802A0910902B09178
:101DD0000A028093880590938905A0938A05B093A1
:101DE0008B0580910B0290910C02A0910D02B09195
:101DF0000E0280938C0590938D05A0938E05B09371
:101E00008F0584E08093900587E080939105109280
:101E1000920584EB8093930586E18093940588E195
:101E20008093950587E18093960589E180939705D6
:101E3000E0916505EC3020F08FEF8093980510C09D
:101E400081E08E0F80936505E093980585E0E89F1B
:101E5000F0011124E75DFA4F88EB9BE092838183C8
:101E6000E0916505EC3020F08FEF8093990510C06C
:101E700081E08E0F80936505E093990585E0E89FEA
:101E8000F0011124E75DFA4F88EB9BE09283818398
:101E90008CE08093670584E28093680586E08093F8
:101EA000690585E080936A058FE180936B058EE17B
:101EB00080936C0583E280936D0582E280936E05CA
:101EC00085E480936F0584E48093700580E48093BB
:101ED0007305109278051092790510927A05109288
:101EE0007B0510927C0510927D0510927E05109264
:101EF0007F05EDE4F6E02BE037E08FEF9FEFDC01AC
:101F0000128213821482158216821782108611861D
:101F100083879487A587B6878787908BA18BB28BA1
:101F200012861182108273962E173F0749F78DE0B3
:101F300090E00E945711FC011382128287E392E025
:101F400091838083118687E2848384E1828784E0A1
:101F500083871486F0934A06E093490610924B0655
:101F600010924C0685E28093580410925A04109205
:101F70002C0710922B0710922E0710922D0710920B
:101F8000300710922F0761E070E080E090E00E943F
:101F90007812009791F090932C0780932B07109262
:101FA0002E0710922D0720912F0730913007232BF9
:101FB00009F03FC0FC0110823CC080912B0790913A
:101FC0002C07009711F00E94EF1110922C0710922D
:101FD0002B071092300710922F0710922E071092A5
:101FE0002D078BE097E0909315078093140790934B
:101FF000200780931F07909322078093210784E096
:1020000091E00E945711909325078093240704962E
:1020100090932707809326071092100710920F07BE
:1020200010920E0710920D0710920C0710920B07DA
:1020300008951092300710922F076FE372E080919D
:102040002B0790912C070E946B13CBCF990F0008A0
:10205000550FAA0BE0E8FEEF16161706E807F9077A
:10206000C0F012161306E407F50798F0621B730B15
:10207000840B950B39F40A2661F0232B242B252B96
:1020800021F408950A2609F4A140A6958FEF811D39
:10209000811D08950E945D100C94CE100E94C01006
:1020A00038F00E94C71020F0952311F00C94B7105F
:1020B0000C94BD1011240C9402110E94DF1070F3D7
:1020C000959FC1F3950F50E0551F629FF001729FDD
:1020D000BB27F00DB11D639FAA27F00DB11DAA1FEC
:1020E000649F6627B00DA11D661F829F2227B00D39
:1020F000A11D621F739FB00DA11D621F839FA00DC4
:10210000611D221F749F3327A00D611D231F849F13
:10211000600D211D822F762F6A2F11249F5750406A
:102120009AF0F1F088234AF0EE0FFF1FBB1F661FE5
:10213000771F881F91505040A9F79E3F510580F0AE
:102140000C94B7100C9402115F3FE4F3983ED4F363
:10215000869577956795B795F795E7959F5FC1F752
:10216000FE2B880F911D9695879597F9089597F9FD
:102170009F6780E870E060E008959FEF80EC08952D
:1021800000240A9416161706180609060895002456
:102190000A9412161306140605060895092E0394D0
:1021A000000C11F4882352F0BB0F40F4BF2B11F444
:1021B00060FF04C06F5F7F4F8F4F9F4F089557FDA3
:1021C0009058440F551F59F05F3F71F04795880FA5
:1021D00097FB991F61F09F3F79F08795089512163C
:1021E00013061406551FF2CF4695F1DF08C01616E8
:1021F00017061806991FF1CF869571056105089499
:102200000895E894BB2766277727CB0197F90895AF
:10221000991B79E004C0991F961708F0961B881F38
:102220007A95C9F780950895EE0FFF1F881F8BBF21
:102230000790F691E02D19940E9423116894B11132
:102240000C94021108950E94E71088F09F5798F0AF
:10225000B92F9927B751B0F0E1F0660F771F881FAB
:10226000991F1AF0BA95C9F714C0B13091F00E94C5
:102270000111B1E008950C940111672F782F882780
:10228000B85F39F0B93FCCF3869577956795B395EC
:10229000D9F73EF490958095709561957F4F8F4F5B
:1022A0009F4F08950E94261008F48FEF08950F9312
:1022B0001F93CF93DF938230910510F482E090E07A
:1022C000E0913307F091340720E030E0A0E0B0E087
:1022D000309719F1408151810281138148175907C4
:1022E000C8F08417950769F4109731F012960C9393
:1022F000129713961C9327C000933307109334074B
:1023000022C02115310519F04217530718F49A011C
:10231000BD01EF01DF01F801DBCF21153105F9F037
:10232000281B390B2430310580F48A819B8161158B
:10233000710521F0FB019383828304C090933407DD
:1023400080933307FE01329644C0FE01E20FF31F73
:102350008193919322503109398328833AC0209187
:10236000310730913207232B41F420910302309141
:1023700004023093320720933107209101023091FB
:1023800002022115310541F42DB73EB740910502F7
:1023900050910602241B350BE0913107F091320772
:1023A000E217F307A0F42E1B3F0B2817390778F02C
:1023B000AC014E5F5F4F2417350748F04E0F5F1F8B
:1023C00050933207409331078193919302C0E0E02C
:1023D000F0E0CF01DF91CF911F910F910895CF933E
:1023E000DF93009709F481C0FC01329713821282B7
:1023F000A0913307B0913407109781F42081318187
:10240000820F931F20913107309132072817390727
:1024100051F5F0933207E093310767C0ED0120E0FA
:1024200030E0CE17DF0740F44A815B819E01411501
:102430005105F1F0EA01F5CFD383C2834081518188
:10244000840F951FC817D90759F488819981840F83
:10245000951F0296918380838A819B8193838283D7
:102460002115310529F4F0933407E09333073DC07B
:10247000E901FB83EA8349915991C40FD51FEC17F9
:10248000FD0761F480819181840F951F0296E90117
:1024900099838883828193819B838A83E0E0F0E043
:1024A00012968D919C911397009719F0FD01DC0114
:1024B000F7CF8D919C9111979D012E5F3F4F820F19
:1024C000931F20913107309132072817390769F49B
:1024D000309729F4109234071092330702C0138208
:1024E0001282B0933207A0933107DF91CF91089504
:1024F0006F927F928F929F92AF92BF92CF92DF9214
:10250000EF92FF920F931F93CF93DF93009789F47D
:10251000CB01DF91CF911F910F91FF90EF90DF9052
:10252000CF90BF90AF909F908F907F906F900C94C2
:102530005711FC01E60FF71F9C0122503109E217E9
:10254000F30708F4A9C0EC01D9010D911C91119772
:1025500006171707B0F00530110508F49BC0C80135
:1025600004978617970708F495C002501109061BB7
:10257000170B019311936D937C93CF010E94EF1180
:1025800089C05B01A01AB10A4C01800E911EA09176
:102590003307B0913407612C712CE12CF12C10978A
:1025A00009F446C08D919C911197A815B905B1F514
:1025B0006C0142E0C40ED11CCA14DB0478F14C015A
:1025C0008A189B08640142E0C40ED11C1296BC908C
:1025D00012971396AC91B5E0CB16D10440F0B282BD
:1025E000A38391828082D9016D937C9309C00E5F91
:1025F0001F4F800F911FF90191838083EB2DFA2FDC
:10260000E114F10431F0D7011396FC93EE93129785
:1026100041C0F0933407E09333073CC06816790655
:1026200008F43C017D0112960D90BC91A02DB7CF0E
:10263000809131079091320788169906E1F4661669
:102640007706C8F48091010290910202009741F44C
:102650008DB79EB74091050250910602841B950BE1
:10266000E817F907C8F4F0933207E0933107F9014E
:10267000718360830FC0CB010E9457117C010097CA
:1026800059F0A801BE010E946213CE010E94EF1111
:10269000C70104C0CE0102C080E090E0DF91CF917D
:1026A0001F910F91FF90EF90DF90CF90BF90AF9070
:1026B0009F908F907F906F90089581E090E0F894C4
:1026C0000C947213FB01DC0102C001900D92415089
:1026D0005040D8F70895FB01DC0101900D920020D5
:1026E000E1F7089511E0C4E9D1E000E006C0802FD1
:1026F000FE010E9414112196011DC539D10780E009
:082700000807A9F7F894FFCFC8
:10270800FF000035072000363738391B1D1A1C001A
:10271800000000AD0880080F0354087808640855C5
:1027280008000000006F02C801F201BC0223020188
:10273800021502000000003504C8010F030E030053
:00000001FF
